:100000000C94BD000C94DA000C94DA000C94DA0025
:100010000C94DA000C94DA000C94DA000C94DA00F8
:100020000C94DA000C94DA000C94DA000C94DA00E8
:100030000C94DA000C9429020C94DA000C94DA0087
:100040000C94DA000C94DA000C94DA000C94DA00C8
:100050000C94DA000C94DA000C94DA000C94DA00B8
:100060000C94DA000C94DA000C94DA000C94DA00A8
:1000700001020408102040801B36637C777BF26B02
:100080006FC53001672BFED7AB76CA82C97DFA599E
:1000900047F0ADD4A2AF9CA472C0B7FD9326363F03
:1000A000F7CC34A5E5F171D8311504C723C31896F0
:1000B000059A071280E2EB27B27509832C1A1B6E92
:1000C0005AA0523BD6B329E32F8453D100ED20FC34
:1000D000B15B6ACBBE394A4C58CFD0EFAAFB434D37
:1000E000338545F9027F503C9FA851A3408F929DD4
:1000F00038F5BCB6DA2110FFF3D2CD0C13EC5F97C4
:100100004417C4A77E3D645D197360814FDC222AC9
:10011000908846EEB814DE5E0BDBE0323A0A490600
:10012000245CC2D3AC629195E479E7C8376D8DD574
:100130004EA96C56F4EA657AAE08BA78252E1CA64C
:10014000B4C6E8DD741F4BBD8B8A703EB5664803AC
:10015000F60E613557B986C11D9EE1F8981169D92F
:100160008E949B1E87E9CE5528DF8CA1890DBFE6B2
:10017000426841992D0FB054BB1611241FBECFEF1A
:10018000D0E1DEBFCDBF11E0A0E0B1E0EEECFCE0DD
:1001900002C005900D92A032B107D9F711E0A0E29C
:1001A000B1E001C01D92AD3DB107E1F70E946005CD
:1001B0000C9465060C9400002998219A2A9A229A98
:1001C0002098289A599A519A26982E9AE4E6F0E0B7
:1001D0008081877F8083A1E8B0E08C9188608C93D8
:1001E00083E791E0909389008093880010928500C6
:1001F00010928400B19AB29A8C9181608C93808124
:100200008D7F80831092C50083E08093C400E0EC72
:10021000F0E080818260808386E08093C200E1EC20
:10022000F0E080818860808378940895282F30E002
:10023000220F331F3C604FEF5FEF1092D9011092F5
:10024000D1011092D0013093D1012093D00150936D
:10025000D5014093D4018091D4019091D5019B7F29
:100260009093D5018093D4011092D8011092D701B8
:10027000B19A80916F00826080936F008091D0016D
:100280009091D101892BD1F726982E9A8091D9018E
:100290008111D3CF08958BE30E94160180E90E945B
:1002A000160181E10E94160180E00C9416010F9363
:1002B0001F93CF93DF93062F662341F0EC0110E0EC
:1002C00089910E9416011F5F1013FACFDF91CF9121
:1002D0001F910F910895CF93DF931F92CDB7DEB793
:1002E00069830E9416016981862F0F90DF91CF915B
:1002F0000C941601EF920F93821302C0601751F015
:100300008AE60E94160180E00E94160180E00F91AB
:10031000EF9008954E1551F087E60E94160180E097
:100320000E94160180E00F91EF90089581E0EFCFD9
:10033000E2E7F1E060E07CE04EE150E0F093850020
:10034000E0938400000000001092D9011092D101C6
:100350001092D0017093D1016093D0011092D50119
:100360001092D4012091D4013091D50134603093A2
:10037000D5012093D4011092D8011092D70126986C
:100380002E9A1E99FECF50938500409384002091B1
:100390006F00226020936F002091D0013091D10135
:1003A000232BD1F72091D9012111C8CF2091D7015A
:1003B0003091D80136952795FC01208308959F92AE
:1003C000AF92BF92CF92DF92EF92FF920F931F9363
:1003D000CF93DF931F92CDB7DEB7982E7B016A01D2
:1003E00059011982882339F0CE0101960E949801A3
:1003F00099819911F9CFC7010E949801C6010E9405
:100400009801C5010E949801C8010E9498010F90AF
:10041000DF91CF911F910F91FF90EF90DF90CF90E0
:10042000BF90AF909F9008950F931F93CF93DF934A
:10043000062F662349F0EC0110E0CE010E949801DE
:100440001F5F21961013F9CFDF91CF911F910F916C
:1004500008951F920F920FB60F9211242F933F937E
:100460004F935F936F937F938F939F93EF936091DD
:10047000D0017091D1012091D7013091D8014091E4
:10048000D4015091D50140FF16C08091D20189302E
:1004900009F474C08091D2018A3009F47CC060FDF7
:1004A00072C02E98269A9091DC01862F8170892740
:1004B0008093DC011DC026982E9A80918400909133
:1004C00085008A3B9105C8F383B1982F907486FD0F
:1004D00040C03F7E8091DC018093DC018091D2019D
:1004E000893009F442C08091D2018A3009F44DC0AC
:1004F000CB019695879556954795369527956091AA
:10050000D2016F5F6093D201009749F460916F0050
:100510006D7F60936F001092D2011092DC015093B6
:10052000D5014093D4013093D8012093D701909303
:10053000D1018093D001EF919F918F917F916F9125
:100540005F914F913F912F910F900FBE0F901F9091
:10055000189530618091DC01E1E08E278093DC0109
:100560008091D201893009F0BECF8091DC018823CF
:1005700009F4B9CF81E08093D901B5CF8091DC0136
:10058000882309F48ECF2E9A8DCF9111B1CF81E0BF
:100590008093D901ADCF8091D901811182CF2E9A5C
:1005A00081CFFC012081222351F031968091C0003F
:1005B00085FFFCCF2093C60021912111F7CF08952C
:1005C000CF93DF9300D01F92CDB7DEB740E150E06C
:1005D000BE016F5F7F4F90E00E942B0699819923A7
:1005E00059F0FE0132968091C00085FFFCCF9093B8
:1005F000C60091919111F7CF0F900F900F90DF915E
:10060000CF9108952A9887EA91E60197F1F700C003
:1006100000002A9A87EA91E60197F1F700C00000EE
:10062000F1CF98E030E060FD3827282F2078880F40
:100630002111842766959150B1F7832F08956F9209
:100640007F928F929F92AF92BF92CF92DF92EF9262
:10065000FF920F931F93CF93DF93EA018B011695BF
:100660000795129502950F7001271F700127D02E54
:100670007801FF24A701495F5F4FC42ECC0CCC0C3E
:10068000AB01569547955695479556954795BC01AC
:10069000CE010E9422060C1508F07DC0902E990C08
:1006A000B02E60E070E0A12C25C0F8E0DF1609F460
:1006B00055C00B2F1A2F282D372DFC01EE19FF09DD
:1006C000EE0FFF1FEE0FFF1FEC0FFD1F80819181CA
:1006D000A281B38180279127A227B327FA018483BF
:1006E0009583A683B7836F5F7F4F0D2D060F0C1583
:1006F00008F051C0802F90E0AC014150504C440FA5
:10070000551F440F551F4C0F5D1FFA01B081A18189
:1007100082807380B012C9CFB92CB60EEA2FF0E0F8
:10072000E658FF4FA491E82DF0E0E658FF4F849083
:10073000E72DF0E0E658FF4F7490EB2FF0E0E6581D
:10074000FF4FB491EA2DF0E0E059FF4FE491A394FC
:100750000E2F0A27182D272D3B2FAFCF07700430FF
:1007600009F0A7CFEB2FF0E0E658FF4FB491EA2F46
:10077000F0E0E658FF4F6490E82DF0E0E658FF4FB8
:10078000A491E72DF0E0E658FF4FE4910B2F162DD2
:100790002A2F3E2F92CFDF91CF911F910F91FF9083
:1007A000EF90DF90CF90BF90AF909F908F907F9011
:1007B0006F900895AB0160E870E00C941F03AB01EB
:1007C00060EC70E00C941F03AB0160E071E00C94EE
:1007D0001F03CF93DF9300D000D0CDB7DEB7FC016D
:1007E0008081898384818A8380858B8384858C83BF
:1007F000862F8370A1E0B0E0AC0FBD1FA80FB11D24
:100800008C91808370E0CB0101968370992721E061
:1008100030E02C0F3D1F820F931FDC018C918483ED
:10082000CB01029683709927820F931FDC018C9174
:100830008087DB011396A370BB27A20FB31F8C9197
:1008400084870F900F900F900F90DF91CF910895B4
:100850002F923F924F925F926F927F928F929F92D0
:10086000AF92BF92CF92DF92EF92FF920F931F93BE
:10087000CF93DF93CDB7DEB764970FB6F894DEBFA2
:100880000FBECDBF7C015B01242EDB01FC0190E19A
:100890002D918081822781939150D1F781E082153B
:1008A00008F0F8C0662463948E010F5E1F4FD701D5
:1008B0001396BA8BA98B4E01B4E18B0E911CEBE120
:1008C0007E2E6501E0E16E9EC00CD11C1124DE017C
:1008D0001196C701FC012191CF01E22FF0E0E6580B
:1008E000FF4FE491ED93A017B107A1F761E0CE01AE
:1008F00002960E94E90362E0CE0103960E94E9039A
:1009000063E0CE0104960E94E903FE0134968989D2
:100910009A899C8B8B8BCF010397DC014C90CF0184
:100920000297DC017C91572E5424CF010197DC0102
:100930006C915081362F3527432F452598E082E072
:10094000312C50FC3826282F2078880F211187253C
:1009500056949150B1F7542E542453248B899C897A
:100960000397DC015C92562E572698E082E0312CEA
:1009700050FC3826282F2078880F2111872556947F
:100980009150B1F7742773258B899C890297DC01FC
:100990007C9398E082E0512C30FD5826782F7078B7
:1009A000880F7111872536959150B1F76427652519
:1009B0008B899C890197DC016C93242D252798E075
:1009C00082E060E020FD6827382F3078880F3111F1
:1009D000872526959150B1F745274627AB89BC89D5
:1009E0004C9334961496BC8BAB8BE815F90509F043
:1009F00092CFD601F70190E12D91808182278193DA
:100A00009150D1F7639462105CCF062D10E00295EF
:100A10001295107F1027007F10270A0D1B1DD7018C
:100A200080E1EC91F0E0E658FF4FE491ED938150C6
:100A3000C1F761E0C70101960E94E90362E0C701C6
:100A400002960E94E90363E089899A890E94E9037A
:100A5000D801F70190E12D918081822781939150F7
:100A6000D1F764960FB6F894DEBF0FBECDBFDF910D
:100A7000CF911F910F91FF90EF90DF90CF90BF909B
:100A8000AF909F908F907F906F905F904F903F902E
:100A90002F90089501E010E0F7013396FA8BE98B6F
:100AA000B6CF4AE00C94280440E251E060E870E0E0
:100AB0000E941F0380E291E008954AE00C9428040C
:100AC000CF93DF93CDB7DEB7A0970FB6F894DEBF14
:100AD0000FBECDBF1092D1011092D0011092D8015B
:100AE0001092D7011092D5011092D4011092D20128
:100AF0001092DC011092D90180E1E0E0F1E0DE012A
:100B0000519601900D928A95E1F780E1E0E1F1E0E4
:100B1000DE01119601900D928A95E1F70E94DC00AA
:100B200019898E89898B8A898E8B8F8D8A8B8E8D80
:100B30008F8F8B898E8F8C898B8B0E944B018D8937
:100B40008C8B8F898D8B88A18F8B888D88A38D8DC1
:100B5000888F8C8D8D8F8B8D8C8F898D8B8F8A8DCF
:100B6000898F1A8F6E0181E1C80ED11CC6010E94C7
:100B700054055C010BED11E026ED31E043ED51E051
:100B80006AED71E088E80E94DF018091DA0180312E
:100B900069F1803C21F550E1E52E00E020E0409134
:100BA000DB016091D6018091D3010E947A018823F4
:100BB00009F38091DA010E9416018E010F5F1F4F29
:100BC000F80181918F010E9416010C151D05C1F7D6
:100BD00080E90E94160180E00E941601CBCF89E6D1
:100BE0000E94160180E00E941601C4CF60E1E62E4B
:100BF00000E020E04091DB016091D6018091D301BB
:100C00000E947A01882309F4B5CF8091DA010E940D
:100C100016018E010F5F1F4FC8010E9498010F5FE0
:100C20001F4F0C151D05C1F7299AB501CE0101967C
:100C30000E945D05299881E60E94160180E10E94CC
:100C4000160198CFFB01DC0102C001900D924150CA
:100C50005040D8F70895FB019F01423074F04532AF
:100C600064F4642F77270E945106805D8A330CF06C
:100C7000895D8193CB010097A1F71082C9010C9483
:100C80004106DC01FC01672F71917723E1F7329770
:100C900004C07C916D9370836291AE17BF07C8F357
:100CA0000895AA1BBB1B51E107C0AA1FBB1FA617B3
:100CB000B70710F0A61BB70B881F991F5A95A9F705
:0E0CC00080959095BC01CD010895F894FFCF6A
:100CCE001205FD64594FBDBDE8768EB951EB1C9FE0
:100CDE0083851FAB6041CDF54A416CDAF012C2D468
:00000001FF

