:100000000C9438000C944D000C944D000C944D0051
:100010000C944D000C944D000C944D000C944D002C
:100020000C944D000C944D000C944D000C944D001C
:100030000C944D000C944D000C944D000C944D000C
:100040000C944D000C944D000C944D000C944D00FC
:100050000C944D000C944D000C944D000C944D00EC
:100060000C944D000C944D000C944D000C944D00DC
:1000700011241FBECFEFD0E1DEBFCDBF11E0A0E065
:10008000B1E0E8E1F1E002C005900D92A032B107C5
:10009000D9F70E9455000C948A000C940000CDB74B
:1000A000089580E090E008950895CF93DF93CDB751
:1000B000DEB7A1970FB6F894DEBF0FBECDBF80E1CB
:1000C000E0E0F1E0DE01519601900D928A95E1F7B2
:1000D00080E1E0E1F1E0DE01119601900D928A9558
:1000E000E1F78EE189A3CE0141960E9451008C0177
:1000F00089A1882359F0B801CE0101960E945400CD
:1001000089A1815089A389A18111F5CF89A181504D
:0801100089A3FFCFF894FFCF93
:10011800F3541FA34B339C0D80237AF97C21D73BE2
:1001280083851FAB6041CDF54A416CDAF012C2D429
:00000001FF
