:100000000C94BD010C94DA010C94DA010C94DA0121
:100010000C94DA010C94DA010C94DA010C94DA01F4
:100020000C94DA010C94DA010C94DA010C94DA01E4
:100030000C94DA010C94DA010C94DA010C94DA01D4
:100040000C94DA010C94DA010C94DA010C94DA01C4
:100050000C94DA010C94DA010C94DA010C94DA01B4
:100060000C94DA010C94DA010C94DA010C94DA01A4
:10007000000306050C0F0A09181B1E1D1417121188
:10008000303336353C3F3A39282B2E2D2427222178
:10009000606366656C6F6A69787B7E7D7477727168
:1000A000505356555C5F5A59484B4E4D4447424158
:1000B000C0C3C6C5CCCFCAC9D8DBDEDDD4D7D2D148
:1000C000F0F3F6F5FCFFFAF9E8EBEEEDE4E7E2E138
:1000D000A0A3A6A5ACAFAAA9B8BBBEBDB4B7B2B128
:1000E000909396959C9F9A99888B8E8D8487828118
:1000F0009B989D9E97949192838085868F8C898A08
:10010000ABA8ADAEA7A4A1A2B3B0B5B6BFBCB9BAF7
:10011000FBF8FDFEF7F4F1F2E3E0E5E6EFECE9EAE7
:10012000CBC8CDCEC7C4C1C2D3D0D5D6DFDCD9DAD7
:100130005B585D5E57545152434045464F4C494AC7
:100140006B686D6E67646162737075767F7C797AB7
:100150003B383D3E37343132232025262F2C292AA7
:100160000B080D0E07040102131015161F1C191A97
:1001700000020406080A0C0E10121416181A1C1E8F
:1001800020222426282A2C2E30323436383A3C3E7F
:1001900040424446484A4C4E50525456585A5C5E6F
:1001A00060626466686A6C6E70727476787A7C7E5F
:1001B00080828486888A8C8E90929496989A9C9E4F
:1001C000A0A2A4A6A8AAACAEB0B2B4B6B8BABCBE3F
:1001D000C0C2C4C6C8CACCCED0D2D4D6D8DADCDE2F
:1001E000E0E2E4E6E8EAECEEF0F2F4F6F8FAFCFE1F
:1001F0001B191F1D131117150B090F0D03010705FF
:100200003B393F3D333137352B292F2D23212725EE
:100210005B595F5D535157554B494F4D43414745DE
:100220007B797F7D737177756B696F6D63616765CE
:100230009B999F9D939197958B898F8D83818785BE
:10024000BBB9BFBDB3B1B7B5ABA9AFADA3A1A7A5AE
:10025000DBD9DFDDD3D1D7D5CBC9CFCDC3C1C7C59E
:10026000FBF9FFFDF3F1F7F5EBE9EFEDE3E1E7E58E
:1002700001020408102040801B36637C777BF26B00
:100280006FC53001672BFED7AB76CA82C97DFA599C
:1002900047F0ADD4A2AF9CA472C0B7FD9326363F01
:1002A000F7CC34A5E5F171D8311504C723C31896EE
:1002B000059A071280E2EB27B27509832C1A1B6E90
:1002C0005AA0523BD6B329E32F8453D100ED20FC32
:1002D000B15B6ACBBE394A4C58CFD0EFAAFB434D35
:1002E000338545F9027F503C9FA851A3408F929DD2
:1002F00038F5BCB6DA2110FFF3D2CD0C13EC5F97C2
:100300004417C4A77E3D645D197360814FDC222AC7
:10031000908846EEB814DE5E0BDBE0323A0A4906FE
:10032000245CC2D3AC629195E479E7C8376D8DD572
:100330004EA96C56F4EA657AAE08BA78252E1CA64A
:10034000B4C6E8DD741F4BBD8B8A703EB5664803AA
:10035000F60E613557B986C11D9EE1F8981169D92D
:100360008E949B1E87E9CE5528DF8CA1890DBFE6B0
:10037000426841992D0FB054BB1611241FBECFEF18
:10038000D0E1DEBFCDBF11E0A0E0B1E0E2EBF7E1EC
:1003900002C005900D92A632B107D9F721E0A6E27E
:1003A000B1E001C01D92AA32B207E1F70E94DC0160
:1003B0000C94D70B0C940000CF93DF93CDB7DEB72E
:1003C000A1970FB6F894DEBF0FBECDBF80E1E6E087
:1003D000F1E0DE01519601900D928A95E1F780E1FE
:1003E000E6E1F1E0DE01119601900D928A95E1F7C8
:1003F0008EE189A3CE0141960E9411028C0199A140
:10040000992359F0B801CE0101960E942E0399A1BB
:10041000915099A389A18111F5CF89A1815089A318
:10042000FFCF2F923F924F925F926F927F928F9267
:100430009F92AF92BF92CF92DF92EF92FF920F9373
:100440001F93CF93DF93CDB7DEB72C970FB6F894F9
:10045000DEBF0FBECDBF8C0180EB90E00E94AA0AE8
:100460009A878987D8014D905D906D907C90DC01D2
:100470004D925D926D927C921397F80184809580E5
:10048000A680B78014968D929D92AD92BC921797DC
:1004900040855185628573854D835E836F83788740
:1004A000DC0118964D935D936D937C931B97848527
:1004B0009585A685B785E985FA8584879587A6877A
:1004C000B78740E7242E42E0342EFC87EB876C018F
:1004D0007D011DC04B855C85405F5F4F5C874B870E
:1004E000DA011C96CD90DD90ED90FC901F9714964C
:1004F0008D909D90AD90BC90179718964D915D9101
:100500006D917C911B974D835E836F837887BB27AA
:10051000AF2D9E2D8D2D8701222733274F2D552757
:100520006627772749835A836B837C836C2D62957A
:100530006F704C2D4F7050E070E1679F400D511D62
:100540001124FA01E658FD4F4491582F52955F70DF
:10055000E82FEF70F0E080E1589FE00DF11D1124CD
:10056000E658FD4F9491F1018491502F52955F70A0
:10057000E02FEF70F0E020E1529FE00DF11D11241B
:10058000E658FD4F2491398132953F70E981EF7033
:10059000F0E050E1359FE00DF11D1124E658FD4FCC
:1005A000E49150E060E070E0742F662755274427FF
:1005B0006E2B522B9827492B4426552666267726E4
:1005C000AB85BC8550964D925D926D927C9253970F
:1005D00084249524A624B72454968D929D92AD929E
:1005E000BC9257974D815E816F81788584269526D0
:1005F000A626B72658968D929D92AD92BC925B9797
:100600008C249D24AE24BF245C968D929D92AD9245
:10061000BC925F97BFEF2B1A3B0AEAE72E16E2E087
:100620003E0609F057CF89859A852C960FB6F89427
:10063000DEBF0FBECDBFDF91CF911F910F91FF9015
:10064000EF90DF90CF90BF90AF909F908F907F9072
:100650006F905F904F903F902F9008952F923F9210
:100660004F925F926F927F928F929F92AF92BF92C2
:10067000CF92DF92EF92FF920F931F93CF93DF936E
:10068000CDB7DEB72B970FB6F894DEBF0FBECDBF48
:100690008C017C836B83DB018C90FC01808188263C
:1006A00080821496BC9014978481B826B4821896E0
:1006B000CC9018978085C826C0861C969C9184850E
:1006C00098279487FB01A181F8018181A827AD8338
:1006D000A183DB0115969C901597858198269582BC
:1006E0001996DC9019978185D826D1861D963C9164
:1006F0001D9785853827358712962C911297828110
:1007000028272E83228316965C901697868158267A
:1007100056821A96AC901A978285A826A2861E96B3
:100720002C911E9786852827268713966C90139701
:1007300083816826638217967C9017978781782635
:1007400077821B966C911B978385862783871F96DC
:100750006C911F97478546274787D0966B817C8190
:1007600060537F4F79876887BB87AA87362C252CF3
:10077000572D642F4D2D1A8309830C2D1B2D782D99
:1007800072957F70A82DAF70B0E0E0E17E9FA00D64
:10079000B11D1124A658BD4FFD017491E72FF0E063
:1007A000E059FE4FB490792D72957F70E92DEF706E
:1007B000CE2ED12CF0E17F9FC00CD11C1124F6016C
:1007C000E658FD4F6F017491E72FF0E0E059FF4FBD
:1007D00094907A2D72957F70EA2DEF70EE2EF12CA9
:1007E000F0E17F9FE00CF11C1124F701E658FD4F6A
:1007F0007F018490F62FF295FF706F7070E0E0E15A
:10080000FE9F600D711D112466587D4FFB01A49061
:10081000B9248B248A24EA85FB85B097A080A8247C
:10082000FD018490F601B490EB2DF0E0E059FE4F0D
:100830009490F701B490EB2DF0E0E059FF4FB490A5
:10084000FB0144909824B924B424EA85FB857F9762
:100850004080B424BF82FD019490F6018490F7019A
:10086000B490EB2DF0E0E059FE4FB490FB01749092
:10087000E72DF0E0E059FF4FF4919824B924BF260A
:10088000EA85FB857E9750805B24FD01A491B0E052
:10089000FD01E059FF4FA491F601C490F701B49116
:1008A000FB016491E62FF0E0E059FE4F6491EC2DDE
:1008B000EA27EB27E627AA85BB855D977C907E26F5
:1008C000F12FF295FF701F70612F70E0A0E1FA9F89
:1008D000600D711D112466587D4FFB01A491EA2F14
:1008E000F0E0E059FE4F1491F42FF295FF704F7035
:1008F000E42EF12C470140E1F49F800C911C11245F
:10090000D401A658BD4F7D01FD014491E42FF0E0D4
:10091000E059FF4F4491F22FF295FF702F70A22FF4
:10092000B0E020E1F29FA00DB11D1124A658BD4FEB
:10093000FD012491F32DF295FF70E32DEF70CE2E83
:10094000D12CE0E1FE9FC00CD11C1124F601E65829
:10095000FD4F6F01B490142721272B25EA85FB85D5
:100960007C97B080B226FB011491F7012491E22F0D
:10097000F0E0E059FE4F4491FD012491E22FF0E0B8
:10098000E059FF4F2491F60194904127242729250F
:10099000EA85FB857B9790809226FB014491F701C5
:1009A0001491FD012491E22FF0E0E059FE4F2491D3
:1009B000F6018490E82DF0E0E059FF4FF4914127D3
:1009C00024272F27EA85FB857A9760806226FB0122
:1009D000649170E0FB01E059FF4F6491F701E490EE
:1009E000FD017491F601C490EC2DF0E0E059FE4F4A
:1009F000C490E6267E257C25AA85BB855997FC9068
:100A0000F726202F22952F700F7010E0F0E12F9F16
:100A1000000D111D112406581D4FF8012491E22FDD
:100A2000F0E0E059FE4F7491232F22952F703F7014
:100A3000A32FB0E0F0E12F9FA00DB11D1124A65807
:100A4000BD4FFD012491E22FF0E0E059FF4FE4900B
:100A50004E8142954F702E812F7030E0F0E14F9F14
:100A6000200D311D112426583D4FF901D490652FDA
:100A700062956F705F70452F50E0F0E16F9F400D01
:100A8000511D112446585D4FFA0164917E25D726E9
:100A9000D626EA85FB857897C080CD24F801D490CE
:100AA000FD016491E62FF0E0E059FE4FE490F9017A
:100AB000649170E0FB01E059FF4F6491FA01749179
:100AC000ED246E256727EA85FB8577977081762769
:100AD000F801D490FD018490F9016491E62FF0E0D3
:100AE000E059FE4FE490FA016491E62FF0E0E059FE
:100AF000FF4FF491D824ED24EF26EA85FB85769705
:100B000060816E25F801049110E0F801E059FF4F73
:100B10000491FD01A491F901B491FA014491E42FEB
:100B2000F0E0E059FE4F4491EA2FE027EB27E4275D
:100B3000AA85BB855597DC90DE26292F22952F703C
:100B40009F70492F50E0F0E12F9F400D511D11245F
:100B500046585D4FFA019491E92FF0E0E059FE4FBD
:100B600094912D8122952F70AD81AF70B0E0F0E1AE
:100B70002F9FA00DB11D1124A658BD4FFD0124913A
:100B8000E22FF0E0E059FF4FE490222D22952F70E4
:100B9000022D0F7010E0F0E12F9F000D111D1124A8
:100BA00006581D4FF8018490F82FF295FF708F7052
:100BB000282F30E080E1F89F200D311D11242658A8
:100BC0003D4FF90184919E2589268826EA85FB857B
:100BD000749740804824FA018490FD018491E82FA5
:100BE000F0E0E059FE4FE490F8018491E82FF0E046
:100BF000E059FF4F9491F9018491E8249E259827AC
:100C0000EA85FB85739780818927FA018490FD012D
:100C10003490F8019491E92FF0E0E059FE4FE49010
:100C2000F9019491E92FF0E0E059FF4FF49183240A
:100C3000E824EF26EA85FB85729790819E25FA01CC
:100C40004491E42FF0E0E059FF4F5491FD01A4914D
:100C5000F8012490F9012491E22FF0E0E059FE4FD1
:100C60002491A5272A262226AA85BB8551974C9137
:100C700042252A853B85205E3F4F3B872A87A885F2
:100C8000B9852A173B0709F4BFC25A2D52955F70E8
:100C90002A2D2F7030E0B0E15B9F200D311D112413
:100CA00026583D4FF9015491E52FF0E0E059FE4FF1
:100CB000E490592D52955F70092D0F7010E0F0E10E
:100CC0005F9F000D111D112406581D4FF80154910E
:100CD000E52FF0E0E059FF4FA490562F52955F703A
:100CE0006F70A62FB0E0F0E15F9FA00DB11D112441
:100CF000A658BD4FFD016491F42FF295FF704F701F
:100D000050E0E0E1FE9F400D511D112446585D4F1B
:100D1000FA019490EA24EA85FB85F0978080E82424
:100D20008E2C86268924E981FA818082F9019490AB
:100D3000F8016491E62FF0E0E059FE4FE490FD01E8
:100D40006491E62FF0E0E059FF4F6491FA01A4901E
:100D5000E924EA85FB85BF979080E9246E256A2502
:100D60006D83E981FA816183F9019490F801A4907F
:100D7000FD016491E62FF0E0E059FE4F6491FA0125
:100D8000E490EE2DF0E0E059FF4FE490A924EA85CD
:100D9000FB85BE979080A9246A256E256E83E98124
:100DA000FA816283F901249130E0F901E059FF4FA3
:100DB0002491F8010491FD01A491FA014491E42FDA
:100DC000F0E0E059FE4F44910227EA85FB85BD978C
:100DD0003081302E3326A3253A2E3426A981BA81BC
:100DE00013963C922B2D22952F70AB2DAF70B0E057
:100DF000E0E12E9FA00DB11D1124A658BD4FFD01AD
:100E00002491E22FF0E0E059FE4F0491272F229524
:100E10002F707F70472F50E0F0E12F9F400D511D44
:100E2000112446585D4FFA012491E22FF0E0E05979
:100E3000FF4FB490692F62956F709F70292F30E03B
:100E4000F0E16F9F200D311D112426583D4FF9010F
:100E50009491F72DF295FF70672D6F7070E0E0E1CF
:100E6000FE9F600D711D112466587D4FFB01E490BB
:100E70000B25EA85FB85BC9710810127102F1927C8
:100E80001E25E981FA811483FD01B490FA01949141
:100E9000E92FF0E0E059FE4F0491F9019491E92F18
:100EA000F0E0E059FF4F9491FB01E4900B25EA85B7
:100EB000FB85BB97B0800B25902E99269E24E98157
:100EC000FA819582FD01B490FA01E490F9019491C0
:100ED000E92FF0E0E059FE4F9491FB010491E02FDF
:100EE000F0E0E059FF4F0491EB24EA85FB85BA97C7
:100EF000B080EB242E2C29262026E981FA81268237
:100F0000FD01A491B0E0FD01E059FF4FA491FA0169
:100F10004491F9012491FB016491E62FF0E0E0593E
:100F2000FE4F64914A27EA85FB85B9979081542F3B
:100F300059272527522F5627A981BA8117965C93E6
:100F40009C2D92959F706C2D6F7070E0B0E19B9F0F
:100F5000600D711D112466587D4FFB019491E92F9E
:100F6000F0E0E059FE4F4491282F22952F708F70AA
:100F700090E0F0E12F9F800D911D112486589D4F28
:100F8000FC012491E22FF0E0E059FF4FB490252DB1
:100F900022952F70A52DAF70B0E0F0E12F9FA00D2E
:100FA000B11D1124A658BD4FFD01A490FF2DF2954F
:100FB000FF702F2D2F7030E0E0E1FE9F200D311DDE
:100FC000112426583D4FF901F4904B25EA85FB8505
:100FD000B89700814027042F0A250F25E981FA815F
:100FE0000087FB01B490FC014491E42FF0E0E0594C
:100FF000FE4FE490FD014491E42FF0E0E059FF4FF3
:10100000F490F901C490EB24EA85FB85B797B08092
:10101000EB244E2D4F254C25E981FA814187FB01B8
:10102000B490FC01E490FD01F490EF2DF0E0E05964
:10103000FE4FF490F901C490EC2DF0E0E059FF4F21
:10104000C490EB24EA85FB85B697B080EB24AE2CE8
:10105000AF24AC24E981FA81A286FB01649170E09F
:10106000FB01E059FF4F6491FC019491FD01A491B3
:10107000F9012491E22FF0E0E059FE4F2491862FF0
:101080008927EA85FB85B59730818327A8278A2F92
:101090008227A981BA811B968C93942D92959F707B
:1010A000642D6F7070E0B0E19B9F600D711D112485
:1010B00066587D4FFB019491E92FF0E0E059FE4F17
:1010C00034919F8192959F70EF81EF704E2E512C3D
:1010D000F20120E1929FE00DF11D1124DF01A658DD
:1010E000BD4F2D01FD019491E92FF0E0E059FF4F34
:1010F000F490962D92959F70262D2F70622E712C54
:10110000F30120E1929FE00DF11D1124DF01A658AB
:10111000BD4F3D01FD01E4909D2D92959F70AD2D39
:10112000AF70B0E0F0E19F9FA00DB11D1124A65853
:10113000BD4FFD0124913F25EA85FB85B497908141
:101140003927932F9E259227E981FA819487FB0105
:10115000D490F2012491E22FF0E0E059FE4FF49098
:10116000F301249130E0F901E059FF4F2491FD0192
:10117000E490FD24EA85FB85B397D080FD243F2DC4
:1011800032273E25E981FA813587FB01C490F201BF
:10119000D490F3012491E22FF0E0E059FE4FF49057
:1011A000FD012491E22FF0E0E059FF4FE490DC24B0
:1011B000EA85FB85B297C080DC242D2D2F252E25B6
:1011C000E981FA812687FB016491E62FF0E0E0597E
:1011D000FF4F7491F2014490F301F490FD01A4914A
:1011E000EA2FF0E0E059FE4FF4914726AA85BB852F
:1011F0009197AC91642C6A266F24662D6F27A98184
:10120000BA811F966C93BBCA2F2CF72E2D2DD62E8C
:10121000782F692F09811A819A2D92959F708A2DB6
:101220008F70E82FF0E0B0E19B9FE00DF11D1124DD
:10123000E658FD4F9491AB81BC81A056BF4F8C9175
:10124000E92FE827D801EC938B2D82958F70AB2D79
:10125000AF70EA2FF0E0B0E18B9FE00DF11D11249B
:10126000E658FD4FB4918B819C818C559F4FFC01BA
:10127000A081EB2FEA27D8011496EC939C2D929530
:101280009F708C2D8F70E82FF0E0B0E19B9FE00DF8
:10129000F11D1124E658FD4F9491AB81BC81A855F6
:1012A000BF4F8C91E92FE827D8011896EC93942D25
:1012B00092959F70842D8F70E82FF0E0B0E19B9F96
:1012C000E00DF11D1124E658FD4F9491AB81BC81D6
:1012D000A455BF4F8C91E92FE827D8011C96EC93B9
:1012E000992D92959F70892D8F70E82FF0E0B0E1D5
:1012F0009B9FE00DF11D1124E658FD4F9491AB81A9
:10130000BC81AF55BF4F8C91E92FE827D8011196CA
:10131000EC938F2D82958F70EF2DEF70F0E0B0E1A0
:101320008B9FE00DF11D1124E658FD4F9491AB8188
:10133000BC81AB55BF4F8C91E92FE827D80115969A
:10134000EC93872F82958F707F70E72FF0E0B0E1EC
:101350008B9FE00DF11D1124E658FD4F9491AB8158
:10136000BC81A755BF4F8C91E92FE827D80119966A
:10137000EC938F8182958F70EF81EF70F0E0B0E198
:101380008B9FE00DF11D1124E658FD4F9491AB8128
:10139000BC81A355BF4F8C91E92FE827D8011D963A
:1013A000EC938D2D82958F70ED2DEF70F0E0B0E114
:1013B0008B9FE00DF11D1124E658FD4F9491AB81F8
:1013C000BC81AE55BF4F8C91E92FE827D80112960A
:1013D000EC93862F82958F706F70E62FF0E0B0E16E
:1013E0008B9FE00DF11D1124E658FD4F9491AB81C8
:1013F000BC81AA55BF4F8C91E92FE827D8011696DA
:10140000EC93852D82958F70E52DEF70F0E0B0E1C3
:101410008B9FE00DF11D1124E658FD4F9491AB8197
:10142000BC81A655BF4F8C91E92FE827D8011A96A9
:10143000EC93862D82958F70E62DEF70F0E0B0E191
:101440008B9FE00DF11D1124E658FD4F9491AB8167
:10145000BC81A255BF4F8C91E92FE827D8011E9679
:10146000EC93842F82958F704F70E42FF0E0B0E101
:101470008B9FE00DF11D1124E658FD4F9491AB8137
:10148000BC81AD55BF4F8C91E92FE827D801139649
:10149000EC93872D82958F70E72DEF70F0E0B0E12F
:1014A0008B9FE00DF11D1124E658FD4F9491AB8107
:1014B000BC81A955BF4F8C91E92FE827D801179619
:1014C000EC93822D82958F70E22DEF70F0E0B0E109
:1014D0008B9FE00DF11D1124E658FD4F9491AB81D7
:1014E000BC81A555BF4F8C91E92FE827D8011B96E9
:1014F000EC93822F82958F70E22FEF70F0E0B0E1D5
:101500008B9FE00DF11D1124E658FD4F9491AB81A6
:10151000BC81A155BF4F8C91E92FE827D8011F96B8
:10152000EC932B960FB6F894DEBF0FBECDBFDF91C4
:10153000CF911F910F91FF90EF90DF90CF90BF90D0
:10154000AF909F908F907F906F905F904F903F9063
:101550002F900895CF93DF938230910510F482E0AD
:1015600090E0E0912801F091290120E030E0C0E016
:10157000D0E0309711F14081518148175907C0F0F0
:101580004817590761F482819381209719F09B8352
:101590008A832BC0909329018093280126C02115AE
:1015A000310519F04217530718F49A01BE01DF0103
:1015B000EF010280F381E02DDCCF2115310509F127
:1015C000281B390B2430310590F412968D919C9193
:1015D00013976115710521F0FB019383828304C089
:1015E0009093290180932801FD01329644C0FD01AA
:1015F000E20FF31F81939193225031092D933C9375
:101600003AC02091260130912701232B41F42091EB
:10161000020130910301309327012093260120918C
:101620000001309101012115310541F42DB73EB77C
:101630004091040150910501241B350BE0912601D6
:10164000F0912701E217F307A0F42E1B3F0B281798
:10165000390778F0AC014E5F5F4F2417350748F02B
:101660004E0F5F1F50932701409326018193919362
:1016700002C0E0E0F0E0CF01DF91CF9108950F9339
:101680001F93CF93DF93009709F48CC0FC0132972E
:101690001382128200912801109129010115110570
:1016A00081F420813181820F931F20912601309196
:1016B00027012817390779F5F0932701E0932601D0
:1016C00071C0D80140E050E0AE17BF0750F4129649
:1016D0002D913C911397AD012115310509F1D901E7
:1016E000F3CF9D01DA013383228360817181860FFC
:1016F000971F8217930769F4EC0128813981260F1F
:10170000371F2E5F3F4F318320838A819B819383D4
:101710008283452B29F4F0932901E093280142C0EC
:101720001396FC93EE931297ED01499159919E0106
:10173000240F351FE217F30771F480819181840F24
:10174000951F029611969C938E9382819381139696
:101750009C938E931297E0E0F0E0D80112968D9161
:101760009C911397009719F0F8018C01F6CF8D9199
:101770009C9198012E5F3F4F820F931F209126016D
:10178000309127012817390769F4309729F410920E
:1017900029011092280102C013821282109327019E
:1017A00000932601DF91CF911F910F910895F89436
:0217B000FFCF69
:1017B20000002A012000F3541FA34B339C0D802309
:1017C2007AF97C21D73B83851FAB6041CDF54A4135
:0617D2006CDAF012C2D433
:00000001FF
